{
  "_format": "hh-sol-artifact-1",
  "contractName": "MyEpicNFT",
  "sourceName": "contracts/MyEpicNFT.sol",
  "abi": [
    {
      "inputs": [],
      "stateMutability": "nonpayable",
      "type": "constructor"
    },
    {
      "anonymous": false,
      "inputs": [
        {
          "indexed": true,
          "internalType": "address",
          "name": "owner",
          "type": "address"
        },
        {
          "indexed": true,
          "internalType": "address",
          "name": "approved",
          "type": "address"
        },
        {
          "indexed": true,
          "internalType": "uint256",
          "name": "tokenId",
          "type": "uint256"
        }
      ],
      "name": "Approval",
      "type": "event"
    },
    {
      "anonymous": false,
      "inputs": [
        {
          "indexed": true,
          "internalType": "address",
          "name": "owner",
          "type": "address"
        },
        {
          "indexed": true,
          "internalType": "address",
          "name": "operator",
          "type": "address"
        },
        {
          "indexed": false,
          "internalType": "bool",
          "name": "approved",
          "type": "bool"
        }
      ],
      "name": "ApprovalForAll",
      "type": "event"
    },
    {
      "anonymous": false,
      "inputs": [
        {
          "indexed": false,
          "internalType": "address",
          "name": "sender",
          "type": "address"
        },
        {
          "indexed": false,
          "internalType": "uint256",
          "name": "tokenId",
          "type": "uint256"
        }
      ],
      "name": "NewEpicNFTMinted",
      "type": "event"
    },
    {
      "anonymous": false,
      "inputs": [
        {
          "indexed": true,
          "internalType": "address",
          "name": "from",
          "type": "address"
        },
        {
          "indexed": true,
          "internalType": "address",
          "name": "to",
          "type": "address"
        },
        {
          "indexed": true,
          "internalType": "uint256",
          "name": "tokenId",
          "type": "uint256"
        }
      ],
      "name": "Transfer",
      "type": "event"
    },
    {
      "inputs": [
        {
          "internalType": "address",
          "name": "to",
          "type": "address"
        },
        {
          "internalType": "uint256",
          "name": "tokenId",
          "type": "uint256"
        }
      ],
      "name": "approve",
      "outputs": [],
      "stateMutability": "nonpayable",
      "type": "function"
    },
    {
      "inputs": [
        {
          "internalType": "address",
          "name": "owner",
          "type": "address"
        }
      ],
      "name": "balanceOf",
      "outputs": [
        {
          "internalType": "uint256",
          "name": "",
          "type": "uint256"
        }
      ],
      "stateMutability": "view",
      "type": "function"
    },
    {
      "inputs": [
        {
          "internalType": "uint256",
          "name": "tokenId",
          "type": "uint256"
        }
      ],
      "name": "getApproved",
      "outputs": [
        {
          "internalType": "address",
          "name": "",
          "type": "address"
        }
      ],
      "stateMutability": "view",
      "type": "function"
    },
    {
      "inputs": [
        {
          "internalType": "address",
          "name": "owner",
          "type": "address"
        },
        {
          "internalType": "address",
          "name": "operator",
          "type": "address"
        }
      ],
      "name": "isApprovedForAll",
      "outputs": [
        {
          "internalType": "bool",
          "name": "",
          "type": "bool"
        }
      ],
      "stateMutability": "view",
      "type": "function"
    },
    {
      "inputs": [],
      "name": "makeAnEpicNFT",
      "outputs": [],
      "stateMutability": "nonpayable",
      "type": "function"
    },
    {
      "inputs": [],
      "name": "name",
      "outputs": [
        {
          "internalType": "string",
          "name": "",
          "type": "string"
        }
      ],
      "stateMutability": "view",
      "type": "function"
    },
    {
      "inputs": [
        {
          "internalType": "uint256",
          "name": "tokenId",
          "type": "uint256"
        }
      ],
      "name": "ownerOf",
      "outputs": [
        {
          "internalType": "address",
          "name": "",
          "type": "address"
        }
      ],
      "stateMutability": "view",
      "type": "function"
    },
    {
      "inputs": [
        {
          "internalType": "uint256",
          "name": "tokenId",
          "type": "uint256"
        }
      ],
      "name": "pickRandomFirstWord",
      "outputs": [
        {
          "internalType": "string",
          "name": "",
          "type": "string"
        }
      ],
      "stateMutability": "view",
      "type": "function"
    },
    {
      "inputs": [
        {
          "internalType": "uint256",
          "name": "tokenId",
          "type": "uint256"
        }
      ],
      "name": "pickRandomSecondWord",
      "outputs": [
        {
          "internalType": "string",
          "name": "",
          "type": "string"
        }
      ],
      "stateMutability": "view",
      "type": "function"
    },
    {
      "inputs": [
        {
          "internalType": "uint256",
          "name": "tokenId",
          "type": "uint256"
        }
      ],
      "name": "pickRandomThirdWord",
      "outputs": [
        {
          "internalType": "string",
          "name": "",
          "type": "string"
        }
      ],
      "stateMutability": "view",
      "type": "function"
    },
    {
      "inputs": [
        {
          "internalType": "uint256",
          "name": "tokenId",
          "type": "uint256"
        },
        {
          "internalType": "string",
          "name": "randomWord",
          "type": "string"
        },
        {
          "internalType": "string[]",
          "name": "wordArray",
          "type": "string[]"
        }
      ],
      "name": "pickRandomWord",
      "outputs": [
        {
          "internalType": "string",
          "name": "",
          "type": "string"
        }
      ],
      "stateMutability": "view",
      "type": "function"
    },
    {
      "inputs": [
        {
          "internalType": "address",
          "name": "from",
          "type": "address"
        },
        {
          "internalType": "address",
          "name": "to",
          "type": "address"
        },
        {
          "internalType": "uint256",
          "name": "tokenId",
          "type": "uint256"
        }
      ],
      "name": "safeTransferFrom",
      "outputs": [],
      "stateMutability": "nonpayable",
      "type": "function"
    },
    {
      "inputs": [
        {
          "internalType": "address",
          "name": "from",
          "type": "address"
        },
        {
          "internalType": "address",
          "name": "to",
          "type": "address"
        },
        {
          "internalType": "uint256",
          "name": "tokenId",
          "type": "uint256"
        },
        {
          "internalType": "bytes",
          "name": "_data",
          "type": "bytes"
        }
      ],
      "name": "safeTransferFrom",
      "outputs": [],
      "stateMutability": "nonpayable",
      "type": "function"
    },
    {
      "inputs": [
        {
          "internalType": "address",
          "name": "operator",
          "type": "address"
        },
        {
          "internalType": "bool",
          "name": "approved",
          "type": "bool"
        }
      ],
      "name": "setApprovalForAll",
      "outputs": [],
      "stateMutability": "nonpayable",
      "type": "function"
    },
    {
      "inputs": [
        {
          "internalType": "bytes4",
          "name": "interfaceId",
          "type": "bytes4"
        }
      ],
      "name": "supportsInterface",
      "outputs": [
        {
          "internalType": "bool",
          "name": "",
          "type": "bool"
        }
      ],
      "stateMutability": "view",
      "type": "function"
    },
    {
      "inputs": [],
      "name": "symbol",
      "outputs": [
        {
          "internalType": "string",
          "name": "",
          "type": "string"
        }
      ],
      "stateMutability": "view",
      "type": "function"
    },
    {
      "inputs": [
        {
          "internalType": "uint256",
          "name": "tokenId",
          "type": "uint256"
        }
      ],
      "name": "tokenURI",
      "outputs": [
        {
          "internalType": "string",
          "name": "",
          "type": "string"
        }
      ],
      "stateMutability": "view",
      "type": "function"
    },
    {
      "inputs": [
        {
          "internalType": "address",
          "name": "from",
          "type": "address"
        },
        {
          "internalType": "address",
          "name": "to",
          "type": "address"
        },
        {
          "internalType": "uint256",
          "name": "tokenId",
          "type": "uint256"
        }
      ],
      "name": "transferFrom",
      "outputs": [],
      "stateMutability": "nonpayable",
      "type": "function"
    }
  ],
  "bytecode": "0x608060405260405180610160016040528061012f81526020016200540361012f913960089080519060200190620000389291906200157c565b506040518061036001604052806040518060400160405280600381526020017f456174000000000000000000000000000000000000000000000000000000000081525081526020016040518060400160405280600681526020017f41747461636b000000000000000000000000000000000000000000000000000081525081526020016040518060400160405280600381526020017f527562000000000000000000000000000000000000000000000000000000000081525081526020016040518060400160405280600481526020017f4f70656e0000000000000000000000000000000000000000000000000000000081525081526020016040518060400160405280600581526020017f5370696c6c00000000000000000000000000000000000000000000000000000081525081526020016040518060400160405280600581526020017f536c65657000000000000000000000000000000000000000000000000000000081525081526020016040518060400160405280600481526020017f4c6f76650000000000000000000000000000000000000000000000000000000081525081526020016040518060400160405280600481526020017f486f6c640000000000000000000000000000000000000000000000000000000081525081526020016040518060400160405280600781526020017f44657374726f790000000000000000000000000000000000000000000000000081525081526020016040518060400160405280600681526020017f536563757265000000000000000000000000000000000000000000000000000081525081526020016040518060400160405280600481526020017f426561740000000000000000000000000000000000000000000000000000000081525081526020016040518060400160405280600481526020017f4b6973730000000000000000000000000000000000000000000000000000000081525081526020016040518060400160405280600681526020017f536f6f746865000000000000000000000000000000000000000000000000000081525081526020016040518060400160405280600481526020017f53696e670000000000000000000000000000000000000000000000000000000081525081526020016040518060400160405280600581526020017f4d6f6c647900000000000000000000000000000000000000000000000000000081525081526020016040518060400160405280600481526020017f437574650000000000000000000000000000000000000000000000000000000081525081526020016040518060400160405280600681526020017f507265747479000000000000000000000000000000000000000000000000000081525081526020016040518060400160405280600681526020017f5374696e6b79000000000000000000000000000000000000000000000000000081525081526020016040518060400160405280600a81526020017f426c6f73736f6d696e670000000000000000000000000000000000000000000081525081526020016040518060400160405280600981526020017f527570747572696e67000000000000000000000000000000000000000000000081525081526020016040518060400160405280600881526020017f4d656e6163696e6700000000000000000000000000000000000000000000000081525081526020016040518060400160405280600681526020017f436865657379000000000000000000000000000000000000000000000000000081525081526020016040518060400160405280600481526020017f57696c640000000000000000000000000000000000000000000000000000000081525081526020016040518060400160405280600981526020017f436976696c697a6564000000000000000000000000000000000000000000000081525081526020016040518060400160405280600881526020017f556e68696e67656400000000000000000000000000000000000000000000000081525081526020016040518060400160405280600681526020017f506574697465000000000000000000000000000000000000000000000000000081525081526020016040518060400160405280600581526020017f4c61726765000000000000000000000000000000000000000000000000000000815250815250600990601b6200068e9291906200160d565b50604051806102a001604052806040518060400160405280600581526020017f4b6972627900000000000000000000000000000000000000000000000000000081525081526020016040518060400160405280600881526020017f5072696e6365737300000000000000000000000000000000000000000000000081525081526020016040518060400160405280600581526020017f53616d757300000000000000000000000000000000000000000000000000000081525081526020016040518060400160405280600981526020017f447261676f6e697465000000000000000000000000000000000000000000000081525081526020016040518060400160405280600581526020017f42616e6a6f00000000000000000000000000000000000000000000000000000081525081526020016040518060400160405280600581526020017f4d6172746800000000000000000000000000000000000000000000000000000081525081526020016040518060400160405280600381526020017f446f67000000000000000000000000000000000000000000000000000000000081525081526020016040518060400160405280600381526020017f436174000000000000000000000000000000000000000000000000000000000081525081526020016040518060400160405280600381526020017f456c6b000000000000000000000000000000000000000000000000000000000081525081526020016040518060400160405280600581526020017f4b616e796500000000000000000000000000000000000000000000000000000081525081526020016040518060400160405280600581526020017f467275697400000000000000000000000000000000000000000000000000000081525081526020016040518060400160405280600481526020017f456c6f6e0000000000000000000000000000000000000000000000000000000081525081526020016040518060400160405280600681526020017f4772696d6573000000000000000000000000000000000000000000000000000081525081526020016040518060400160405280600881526020017f436c6966666f726400000000000000000000000000000000000000000000000081525081526020016040518060400160405280600481526020017f4f72656f0000000000000000000000000000000000000000000000000000000081525081526020016040518060400160405280600481526020017f426c75650000000000000000000000000000000000000000000000000000000081525081526020016040518060400160405280600381526020017f526564000000000000000000000000000000000000000000000000000000000081525081526020016040518060400160405280600581526020017f477265656e00000000000000000000000000000000000000000000000000000081525081526020016040518060400160405280600581526020017f4d6574616c00000000000000000000000000000000000000000000000000000081525081526020016040518060400160405280600581526020017f546f78696300000000000000000000000000000000000000000000000000000081525081526020016040518060400160405280600681526020017f506f69736f6e0000000000000000000000000000000000000000000000000000815250815250600a90601562000b8292919062001674565b506040518061046001604052806040518060400160405280600781526020017f4c617361676e610000000000000000000000000000000000000000000000000081525081526020016040518060400160405280600381526020017f456767000000000000000000000000000000000000000000000000000000000081525081526020016040518060400160405280600681526020017f42616e616e61000000000000000000000000000000000000000000000000000081525081526020016040518060400160405280600581526020017f506561636800000000000000000000000000000000000000000000000000000081525081526020016040518060400160405280600981526020017f43686f636f6c617465000000000000000000000000000000000000000000000081525081526020016040518060400160405280600481526020017f4d696c6b0000000000000000000000000000000000000000000000000000000081525081526020016040518060400160405280600581526020017f5461626c6500000000000000000000000000000000000000000000000000000081525081526020016040518060400160405280600581526020017f4d6f6e657900000000000000000000000000000000000000000000000000000081525081526020016040518060400160405280600581526020017f536f6e677300000000000000000000000000000000000000000000000000000081525081526020016040518060400160405280600481526020017f546f65730000000000000000000000000000000000000000000000000000000081525081526020016040518060400160405280600781526020017f46696e676572730000000000000000000000000000000000000000000000000081525081526020016040518060400160405280600581526020017f4c696d627300000000000000000000000000000000000000000000000000000081525081526020016040518060400160405280600481526020017f536b696e0000000000000000000000000000000000000000000000000000000081525081526020016040518060400160405280600581526020017f536d696c6500000000000000000000000000000000000000000000000000000081525081526020016040518060400160405280600681526020017f436865657365000000000000000000000000000000000000000000000000000081525081526020016040518060400160405280600881526020017f466561746865727300000000000000000000000000000000000000000000000081525081526020016040518060400160405280600681526020017f506c616e6574000000000000000000000000000000000000000000000000000081525081526020016040518060400160405280600681526020017f5363616c6573000000000000000000000000000000000000000000000000000081525081526020016040518060400160405280600981526020017f547265617375726573000000000000000000000000000000000000000000000081525081526020016040518060400160405280600781526020017f536563726574730000000000000000000000000000000000000000000000000081525081526020016040518060400160405280600a81526020017f536c696e6773686f74730000000000000000000000000000000000000000000081525081526020016040518060400160405280600681526020017f53776f726473000000000000000000000000000000000000000000000000000081525081526020016040518060400160405280600681526020017f4b6174616e61000000000000000000000000000000000000000000000000000081525081526020016040518060400160405280600681526020017f526962626f6e000000000000000000000000000000000000000000000000000081525081526020016040518060400160405280600581526020017f53686f657300000000000000000000000000000000000000000000000000000081525081526020016040518060400160405280600481526020017f4d61736b0000000000000000000000000000000000000000000000000000000081525081526020016040518060400160405280600581526020017f476c6f766500000000000000000000000000000000000000000000000000000081525081526020016040518060400160405280600a81526020017f546f6f746870617374650000000000000000000000000000000000000000000081525081526020016040518060400160405280600681526020017f4c6f74696f6e000000000000000000000000000000000000000000000000000081525081526020016040518060400160405280600581526020017f437265616d00000000000000000000000000000000000000000000000000000081525081526020016040518060400160405280600681526020017f596f67757274000000000000000000000000000000000000000000000000000081525081526020016040518060400160405280600781526020017f436f7374756d650000000000000000000000000000000000000000000000000081525081526020016040518060400160405280600681526020017f526162626974000000000000000000000000000000000000000000000000000081525081526020016040518060400160405280600881526020017f466f6f7462616c6c00000000000000000000000000000000000000000000000081525081526020016040518060400160405280600681526020017f536e6f6f70790000000000000000000000000000000000000000000000000000815250815250600b906023620013b0929190620016db565b50348015620013be57600080fd5b506040518060400160405280600e81526020017f4a757374696e53696e67684e46540000000000000000000000000000000000008152506040518060400160405280600581526020017f4a534e46540000000000000000000000000000000000000000000000000000008152508160009080519060200190620014439291906200157c565b5080600190805190602001906200145c9291906200157c565b505050620014aa6040518060400160405280601c81526020017f4a757374696e2053696e67682773204e465420636f6e74726163742100000000815250620014b060201b620012fa1760201c565b620018fc565b6200155081604051602401620014c7919062001810565b6040516020818303038152906040527f41304fac000000000000000000000000000000000000000000000000000000007bffffffffffffffffffffffffffffffffffffffffffffffffffffffff19166020820180517bffffffffffffffffffffffffffffffffffffffffffffffffffffffff83818316178352505050506200155360201b60201c565b50565b60008151905060006a636f6e736f6c652e6c6f679050602083016000808483855afa5050505050565b8280546200158a9062001886565b90600052602060002090601f016020900481019282620015ae5760008555620015fa565b82601f10620015c957805160ff1916838001178555620015fa565b82800160010185558215620015fa579182015b82811115620015f9578251825591602001919060010190620015dc565b5b50905062001609919062001742565b5090565b82805482825590600052602060002090810192821562001661579160200282015b82811115620016605782518290805190602001906200164f9291906200157c565b50916020019190600101906200162e565b5b50905062001670919062001761565b5090565b828054828255906000526020600020908101928215620016c8579160200282015b82811115620016c7578251829080519060200190620016b69291906200157c565b509160200191906001019062001695565b5b509050620016d7919062001761565b5090565b8280548282559060005260206000209081019282156200172f579160200282015b828111156200172e5782518290805190602001906200171d9291906200157c565b5091602001919060010190620016fc565b5b5090506200173e919062001761565b5090565b5b808211156200175d57600081600090555060010162001743565b5090565b5b808211156200178557600081816200177b919062001789565b5060010162001762565b5090565b508054620017979062001886565b6000825580601f10620017ab5750620017cc565b601f016020900490600052602060002090810190620017cb919062001742565b5b50565b6000620017dc8262001834565b620017e881856200183f565b9350620017fa81856020860162001850565b6200180581620018eb565b840191505092915050565b600060208201905081810360008301526200182c8184620017cf565b905092915050565b600081519050919050565b600082825260208201905092915050565b60005b838110156200187057808201518184015260208101905062001853565b8381111562001880576000848401525b50505050565b600060028204905060018216806200189f57607f821691505b60208210811415620018b657620018b5620018bc565b5b50919050565b7f4e487b7100000000000000000000000000000000000000000000000000000000600052602260045260246000fd5b6000601f19601f8301169050919050565b613af7806200190c6000396000f3fe608060405234801561001057600080fd5b50600436106101165760003560e01c806370a08231116100a2578063b88d4fde11610071578063b88d4fde14610317578063c575757a14610333578063c87b56dd14610363578063de9d132f14610393578063e985e9c51461039d57610116565b806370a082311461027d57806395d89b41146102ad578063a22cb465146102cb578063b187301f146102e757610116565b806323b872dd116100e957806323b872dd146101b55780632de38d68146101d157806342842e0e146102015780634c549d2b1461021d5780636352211e1461024d57610116565b806301ffc9a71461011b57806306fdde031461014b578063081812fc14610169578063095ea7b314610199575b600080fd5b6101356004803603810190610130919061267c565b6103cd565b6040516101429190613311565b60405180910390f35b6101536104af565b604051610160919061332c565b60405180910390f35b610183600480360381019061017e91906126ce565b610541565b6040516101909190613281565b60405180910390f35b6101b360048036038101906101ae9190612640565b6105c6565b005b6101cf60048036038101906101ca919061253a565b6106de565b005b6101eb60048036038101906101e691906126ce565b61073e565b6040516101f8919061332c565b60405180910390f35b61021b6004803603810190610216919061253a565b61085c565b005b610237600480360381019061023291906126f7565b61087c565b604051610244919061332c565b60405180910390f35b610267600480360381019061026291906126ce565b61090e565b6040516102749190613281565b60405180910390f35b610297600480360381019061029291906124d5565b6109c0565b6040516102a4919061358c565b60405180910390f35b6102b5610a78565b6040516102c2919061332c565b60405180910390f35b6102e560048036038101906102e09190612604565b610b0a565b005b61030160048036038101906102fc91906126ce565b610c8b565b60405161030e919061332c565b60405180910390f35b610331600480360381019061032c9190612589565b610da9565b005b61034d600480360381019061034891906126ce565b610e0b565b60405161035a919061332c565b60405180910390f35b61037d600480360381019061037891906126ce565b610f29565b60405161038a919061332c565b60405180910390f35b61039b61107b565b005b6103b760048036038101906103b291906124fe565b611266565b6040516103c49190613311565b60405180910390f35b60007f80ac58cd000000000000000000000000000000000000000000000000000000007bffffffffffffffffffffffffffffffffffffffffffffffffffffffff1916827bffffffffffffffffffffffffffffffffffffffffffffffffffffffff1916148061049857507f5b5e139f000000000000000000000000000000000000000000000000000000007bffffffffffffffffffffffffffffffffffffffffffffffffffffffff1916827bffffffffffffffffffffffffffffffffffffffffffffffffffffffff1916145b806104a857506104a782611393565b5b9050919050565b6060600080546104be90613887565b80601f01602080910402602001604051908101604052809291908181526020018280546104ea90613887565b80156105375780601f1061050c57610100808354040283529160200191610537565b820191906000526020600020905b81548152906001019060200180831161051a57829003601f168201915b5050505050905090565b600061054c826113fd565b61058b576040517f08c379a0000000000000000000000000000000000000000000000000000000008152600401610582906134ec565b60405180910390fd5b6004600083815260200190815260200160002060009054906101000a900473ffffffffffffffffffffffffffffffffffffffff169050919050565b60006105d18261090e565b90508073ffffffffffffffffffffffffffffffffffffffff168373ffffffffffffffffffffffffffffffffffffffff161415610642576040517f08c379a00000000000000000000000000000000000000000000000000000000081526004016106399061354c565b60405180910390fd5b8073ffffffffffffffffffffffffffffffffffffffff16610661611469565b73ffffffffffffffffffffffffffffffffffffffff161480610690575061068f8161068a611469565b611266565b5b6106cf576040517f08c379a00000000000000000000000000000000000000000000000000000000081526004016106c69061342c565b60405180910390fd5b6106d98383611471565b505050565b6106ef6106e9611469565b8261152a565b61072e576040517f08c379a00000000000000000000000000000000000000000000000000000000081526004016107259061356c565b60405180910390fd5b610739838383611608565b505050565b6060600061077261074e84611864565b60405160200161075e919061323d565b604051602081830303815290604052611a11565b9050600980549050816107859190613902565b9050600981815481106107c1577f4e487b7100000000000000000000000000000000000000000000000000000000600052603260045260246000fd5b9060005260206000200180546107d690613887565b80601f016020809104026020016040519081016040528092919081815260200182805461080290613887565b801561084f5780601f106108245761010080835404028352916020019161084f565b820191906000526020600020905b81548152906001019060200180831161083257829003601f168201915b5050505050915050919050565b61087783838360405180602001604052806000815250610da9565b505050565b606060006108b28461088d87611864565b60405160200161089e929190613116565b604051602081830303815290604052611a11565b90508251816108c19190613902565b90508281815181106108fc577f4e487b7100000000000000000000000000000000000000000000000000000000600052603260045260246000fd5b60200260200101519150509392505050565b6000806002600084815260200190815260200160002060009054906101000a900473ffffffffffffffffffffffffffffffffffffffff169050600073ffffffffffffffffffffffffffffffffffffffff168173ffffffffffffffffffffffffffffffffffffffff1614156109b7576040517f08c379a00000000000000000000000000000000000000000000000000000000081526004016109ae9061346c565b60405180910390fd5b80915050919050565b60008073ffffffffffffffffffffffffffffffffffffffff168273ffffffffffffffffffffffffffffffffffffffff161415610a31576040517f08c379a0000000000000000000000000000000000000000000000000000000008152600401610a289061344c565b60405180910390fd5b600360008373ffffffffffffffffffffffffffffffffffffffff1673ffffffffffffffffffffffffffffffffffffffff168152602001908152602001600020549050919050565b606060018054610a8790613887565b80601f0160208091040260200160405190810160405280929190818152602001828054610ab390613887565b8015610b005780601f10610ad557610100808354040283529160200191610b00565b820191906000526020600020905b815481529060010190602001808311610ae357829003601f168201915b5050505050905090565b610b12611469565b73ffffffffffffffffffffffffffffffffffffffff168273ffffffffffffffffffffffffffffffffffffffff161415610b80576040517f08c379a0000000000000000000000000000000000000000000000000000000008152600401610b77906133ec565b60405180910390fd5b8060056000610b8d611469565b73ffffffffffffffffffffffffffffffffffffffff1673ffffffffffffffffffffffffffffffffffffffff16815260200190815260200160002060008473ffffffffffffffffffffffffffffffffffffffff1673ffffffffffffffffffffffffffffffffffffffff16815260200190815260200160002060006101000a81548160ff0219169083151502179055508173ffffffffffffffffffffffffffffffffffffffff16610c3a611469565b73ffffffffffffffffffffffffffffffffffffffff167f17307eab39ab6107e8899845ad3d59bd9653f200f220920489ca2b5937696c3183604051610c7f9190613311565b60405180910390a35050565b60606000610cbf610c9b84611864565b604051602001610cab91906131d6565b604051602081830303815290604052611a11565b9050600a8054905081610cd29190613902565b9050600a8181548110610d0e577f4e487b7100000000000000000000000000000000000000000000000000000000600052603260045260246000fd5b906000526020600020018054610d2390613887565b80601f0160208091040260200160405190810160405280929190818152602001828054610d4f90613887565b8015610d9c5780601f10610d7157610100808354040283529160200191610d9c565b820191906000526020600020905b815481529060010190602001808311610d7f57829003601f168201915b5050505050915050919050565b610dba610db4611469565b8361152a565b610df9576040517f08c379a0000000000000000000000000000000000000000000000000000000008152600401610df09061356c565b60405180910390fd5b610e0584848484611a44565b50505050565b60606000610e3f610e1b84611864565b604051602001610e2b91906131b4565b604051602081830303815290604052611a11565b9050600b8054905081610e529190613902565b9050600b8181548110610e8e577f4e487b7100000000000000000000000000000000000000000000000000000000600052603260045260246000fd5b906000526020600020018054610ea390613887565b80601f0160208091040260200160405190810160405280929190818152602001828054610ecf90613887565b8015610f1c5780601f10610ef157610100808354040283529160200191610f1c565b820191906000526020600020905b815481529060010190602001808311610eff57829003601f168201915b5050505050915050919050565b6060610f34826113fd565b610f73576040517f08c379a0000000000000000000000000000000000000000000000000000000008152600401610f6a906134cc565b60405180910390fd5b6000600660008481526020019081526020016000208054610f9390613887565b80601f0160208091040260200160405190810160405280929190818152602001828054610fbf90613887565b801561100c5780601f10610fe15761010080835404028352916020019161100c565b820191906000526020600020905b815481529060010190602001808311610fef57829003601f168201915b50505050509050600061101d611aa0565b9050600081511415611033578192505050611076565b600082511115611068578082604051602001611050929190613116565b60405160208183030381529060405292505050611076565b61107184611ab7565b925050505b919050565b60006110876007611b5e565b905060006110948261073e565b905060006110a183610c8b565b905060006110ae84610e0b565b905060008383836040516020016110c79392919061313a565b6040516020818303038152906040529050600060088585856040516020016110f2949392919061316b565b604051602081830303815290604052905060006111378361111284611b6c565b6040516020016111239291906131f8565b604051602081830303815290604052611b6c565b905060008160405160200161114c919061325f565b604051602081830303815290604052905061119b6040518060400160405280601281526020017f0a2d2d2d2d2d2d2d2d2d2d2d2d2d2d2d2d2d00000000000000000000000000008152506112fa565b6111a4836112fa565b6111e26040518060400160405280601281526020017f2d2d2d2d2d2d2d2d2d2d2d2d2d2d2d2d2d0a00000000000000000000000000008152506112fa565b6111ec3389611d2a565b6111f68882611d48565b6112006007611dbc565b611223604051806060016040528060258152602001613a5d602591398933611dd2565b7febb98688741ffa4c7589bf325de30cf7becb63de567842e1ccdb6cb949fdc82c33896040516112549291906132e8565b60405180910390a15050505050505050565b6000600560008473ffffffffffffffffffffffffffffffffffffffff1673ffffffffffffffffffffffffffffffffffffffff16815260200190815260200160002060008373ffffffffffffffffffffffffffffffffffffffff1673ffffffffffffffffffffffffffffffffffffffff16815260200190815260200160002060009054906101000a900460ff16905092915050565b6113908160405160240161130e919061332c565b6040516020818303038152906040527f41304fac000000000000000000000000000000000000000000000000000000007bffffffffffffffffffffffffffffffffffffffffffffffffffffffff19166020820180517bffffffffffffffffffffffffffffffffffffffffffffffffffffffff8381831617835250505050611e71565b50565b60007f01ffc9a7000000000000000000000000000000000000000000000000000000007bffffffffffffffffffffffffffffffffffffffffffffffffffffffff1916827bffffffffffffffffffffffffffffffffffffffffffffffffffffffff1916149050919050565b60008073ffffffffffffffffffffffffffffffffffffffff166002600084815260200190815260200160002060009054906101000a900473ffffffffffffffffffffffffffffffffffffffff1673ffffffffffffffffffffffffffffffffffffffff1614159050919050565b600033905090565b816004600083815260200190815260200160002060006101000a81548173ffffffffffffffffffffffffffffffffffffffff021916908373ffffffffffffffffffffffffffffffffffffffff160217905550808273ffffffffffffffffffffffffffffffffffffffff166114e48361090e565b73ffffffffffffffffffffffffffffffffffffffff167f8c5be1e5ebec7d5bd14f71427d1e84f3dd0314c0f7b2291e5b200ac8c7c3b92560405160405180910390a45050565b6000611535826113fd565b611574576040517f08c379a000000000000000000000000000000000000000000000000000000000815260040161156b9061340c565b60405180910390fd5b600061157f8361090e565b90508073ffffffffffffffffffffffffffffffffffffffff168473ffffffffffffffffffffffffffffffffffffffff1614806115ee57508373ffffffffffffffffffffffffffffffffffffffff166115d684610541565b73ffffffffffffffffffffffffffffffffffffffff16145b806115ff57506115fe8185611266565b5b91505092915050565b8273ffffffffffffffffffffffffffffffffffffffff166116288261090e565b73ffffffffffffffffffffffffffffffffffffffff161461167e576040517f08c379a00000000000000000000000000000000000000000000000000000000081526004016116759061350c565b60405180910390fd5b600073ffffffffffffffffffffffffffffffffffffffff168273ffffffffffffffffffffffffffffffffffffffff1614156116ee576040517f08c379a00000000000000000000000000000000000000000000000000000000081526004016116e5906133cc565b60405180910390fd5b6116f9838383611e9a565b611704600082611471565b6001600360008573ffffffffffffffffffffffffffffffffffffffff1673ffffffffffffffffffffffffffffffffffffffff1681526020019081526020016000206000828254611754919061379d565b925050819055506001600360008473ffffffffffffffffffffffffffffffffffffffff1673ffffffffffffffffffffffffffffffffffffffff16815260200190815260200160002060008282546117ab91906136bc565b92505081905550816002600083815260200190815260200160002060006101000a81548173ffffffffffffffffffffffffffffffffffffffff021916908373ffffffffffffffffffffffffffffffffffffffff160217905550808273ffffffffffffffffffffffffffffffffffffffff168473ffffffffffffffffffffffffffffffffffffffff167fddf252ad1be2c89b69c2b068fc378daa952ba7f163c4a11628f55a4df523b3ef60405160405180910390a4505050565b606060008214156118ac576040518060400160405280600181526020017f30000000000000000000000000000000000000000000000000000000000000008152509050611a0c565b600082905060005b600082146118de5780806118c7906138b9565b915050600a826118d79190613712565b91506118b4565b60008167ffffffffffffffff811115611920577f4e487b7100000000000000000000000000000000000000000000000000000000600052604160045260246000fd5b6040519080825280601f01601f1916602001820160405280156119525781602001600182028036833780820191505090505b5090505b60008514611a055760018261196b919061379d565b9150600a8561197a9190613902565b603061198691906136bc565b60f81b8183815181106119c2577f4e487b7100000000000000000000000000000000000000000000000000000000600052603260045260246000fd5b60200101907effffffffffffffffffffffffffffffffffffffffffffffffffffffffffffff1916908160001a905350600a856119fe9190613712565b9450611956565b8093505050505b919050565b600081604051602001611a2491906130ff565b6040516020818303038152906040528051906020012060001c9050919050565b611a4f848484611608565b611a5b84848484611e9f565b611a9a576040517f08c379a0000000000000000000000000000000000000000000000000000000008152600401611a919061338c565b60405180910390fd5b50505050565b606060405180602001604052806000815250905090565b6060611ac2826113fd565b611b01576040517f08c379a0000000000000000000000000000000000000000000000000000000008152600401611af89061352c565b60405180910390fd5b6000611b0b611aa0565b90506000815111611b2b5760405180602001604052806000815250611b56565b80611b3584611864565b604051602001611b46929190613116565b6040516020818303038152906040525b915050919050565b600081600001549050919050565b60606000825190506000811415611b955760405180602001604052806000815250915050611d25565b60006003600283611ba691906136bc565b611bb09190613712565b6004611bbc9190613743565b90506000602082611bcd91906136bc565b67ffffffffffffffff811115611c0c577f4e487b7100000000000000000000000000000000000000000000000000000000600052604160045260246000fd5b6040519080825280601f01601f191660200182016040528015611c3e5781602001600182028036833780820191505090505b5090506000604051806060016040528060408152602001613a82604091399050600181016020830160005b86811015611ce25760038101905062ffffff818a015116603f8160121c168401518060081b905060ff603f83600c1c1686015116810190508060081b905060ff603f8360061c1686015116810190508060081b905060ff603f831686015116810190508060e01b90508084526004840193505050611c69565b506003860660018114611cfc5760028114611d0c57611d17565b613d3d60f01b6002830352611d17565b603d60f81b60018303525b508484525050819450505050505b919050565b611d44828260405180602001604052806000815250612036565b5050565b611d51826113fd565b611d90576040517f08c379a0000000000000000000000000000000000000000000000000000000008152600401611d879061348c565b60405180910390fd5b80600660008481526020019081526020016000209080519060200190611db7929190612272565b505050565b6001816000016000828254019250508190555050565b611e6c838383604051602401611dea9392919061334e565b6040516020818303038152906040527fe3849f79000000000000000000000000000000000000000000000000000000007bffffffffffffffffffffffffffffffffffffffffffffffffffffffff19166020820180517bffffffffffffffffffffffffffffffffffffffffffffffffffffffff8381831617835250505050611e71565b505050565b60008151905060006a636f6e736f6c652e6c6f679050602083016000808483855afa5050505050565b505050565b6000611ec08473ffffffffffffffffffffffffffffffffffffffff16612091565b15612029578373ffffffffffffffffffffffffffffffffffffffff1663150b7a02611ee9611469565b8786866040518563ffffffff1660e01b8152600401611f0b949392919061329c565b602060405180830381600087803b158015611f2557600080fd5b505af1925050508015611f5657506040513d601f19601f82011682018060405250810190611f5391906126a5565b60015b611fd9573d8060008114611f86576040519150601f19603f3d011682016040523d82523d6000602084013e611f8b565b606091505b50600081511415611fd1576040517f08c379a0000000000000000000000000000000000000000000000000000000008152600401611fc89061338c565b60405180910390fd5b805181602001fd5b63150b7a0260e01b7bffffffffffffffffffffffffffffffffffffffffffffffffffffffff1916817bffffffffffffffffffffffffffffffffffffffffffffffffffffffff19161491505061202e565b600190505b949350505050565b61204083836120a4565b61204d6000848484611e9f565b61208c576040517f08c379a00000000000000000000000000000000000000000000000000000000081526004016120839061338c565b60405180910390fd5b505050565b600080823b905060008111915050919050565b600073ffffffffffffffffffffffffffffffffffffffff168273ffffffffffffffffffffffffffffffffffffffff161415612114576040517f08c379a000000000000000000000000000000000000000000000000000000000815260040161210b906134ac565b60405180910390fd5b61211d816113fd565b1561215d576040517f08c379a0000000000000000000000000000000000000000000000000000000008152600401612154906133ac565b60405180910390fd5b61216960008383611e9a565b6001600360008473ffffffffffffffffffffffffffffffffffffffff1673ffffffffffffffffffffffffffffffffffffffff16815260200190815260200160002060008282546121b991906136bc565b92505081905550816002600083815260200190815260200160002060006101000a81548173ffffffffffffffffffffffffffffffffffffffff021916908373ffffffffffffffffffffffffffffffffffffffff160217905550808273ffffffffffffffffffffffffffffffffffffffff16600073ffffffffffffffffffffffffffffffffffffffff167fddf252ad1be2c89b69c2b068fc378daa952ba7f163c4a11628f55a4df523b3ef60405160405180910390a45050565b82805461227e90613887565b90600052602060002090601f0160209004810192826122a057600085556122e7565b82601f106122b957805160ff19168380011785556122e7565b828001600101855582156122e7579182015b828111156122e65782518255916020019190600101906122cb565b5b5090506122f491906122f8565b5090565b5b808211156123115760008160009055506001016122f9565b5090565b6000612328612323846135d8565b6135a7565b9050808382526020820190508260005b85811015612368578135850161234e8882612496565b845260208401935060208301925050600181019050612338565b5050509392505050565b600061238561238084613604565b6135a7565b90508281526020810184848401111561239d57600080fd5b6123a8848285613845565b509392505050565b60006123c36123be84613634565b6135a7565b9050828152602081018484840111156123db57600080fd5b6123e6848285613845565b509392505050565b6000813590506123fd81613a00565b92915050565b600082601f83011261241457600080fd5b8135612424848260208601612315565b91505092915050565b60008135905061243c81613a17565b92915050565b60008135905061245181613a2e565b92915050565b60008151905061246681613a2e565b92915050565b600082601f83011261247d57600080fd5b813561248d848260208601612372565b91505092915050565b600082601f8301126124a757600080fd5b81356124b78482602086016123b0565b91505092915050565b6000813590506124cf81613a45565b92915050565b6000602082840312156124e757600080fd5b60006124f5848285016123ee565b91505092915050565b6000806040838503121561251157600080fd5b600061251f858286016123ee565b9250506020612530858286016123ee565b9150509250929050565b60008060006060848603121561254f57600080fd5b600061255d868287016123ee565b935050602061256e868287016123ee565b925050604061257f868287016124c0565b9150509250925092565b6000806000806080858703121561259f57600080fd5b60006125ad878288016123ee565b94505060206125be878288016123ee565b93505060406125cf878288016124c0565b925050606085013567ffffffffffffffff8111156125ec57600080fd5b6125f88782880161246c565b91505092959194509250565b6000806040838503121561261757600080fd5b6000612625858286016123ee565b92505060206126368582860161242d565b9150509250929050565b6000806040838503121561265357600080fd5b6000612661858286016123ee565b9250506020612672858286016124c0565b9150509250929050565b60006020828403121561268e57600080fd5b600061269c84828501612442565b91505092915050565b6000602082840312156126b757600080fd5b60006126c584828501612457565b91505092915050565b6000602082840312156126e057600080fd5b60006126ee848285016124c0565b91505092915050565b60008060006060848603121561270c57600080fd5b600061271a868287016124c0565b935050602084013567ffffffffffffffff81111561273757600080fd5b61274386828701612496565b925050604084013567ffffffffffffffff81111561276057600080fd5b61276c86828701612403565b9150509250925092565b61277f816137d1565b82525050565b61278e816137e3565b82525050565b600061279f82613679565b6127a9818561368f565b93506127b9818560208601613854565b6127c2816139ef565b840191505092915050565b60006127d882613684565b6127e281856136a0565b93506127f2818560208601613854565b6127fb816139ef565b840191505092915050565b600061281182613684565b61281b81856136b1565b935061282b818560208601613854565b80840191505092915050565b6000815461284481613887565b61284e81866136b1565b94506001821660008114612869576001811461287a576128ad565b60ff198316865281860193506128ad565b61288385613664565b60005b838110156128a557815481890152600182019150602081019050612886565b838801955050505b50505092915050565b60006128c36032836136a0565b91507f4552433732313a207472616e7366657220746f206e6f6e20455243373231526560008301527f63656976657220696d706c656d656e74657200000000000000000000000000006020830152604082019050919050565b6000612929601c836136a0565b91507f4552433732313a20746f6b656e20616c7265616479206d696e746564000000006000830152602082019050919050565b6000612969600a836136b1565b91507f54484952445f574f5244000000000000000000000000000000000000000000006000830152600a82019050919050565b60006129a96024836136a0565b91507f4552433732313a207472616e7366657220746f20746865207a65726f2061646460008301527f72657373000000000000000000000000000000000000000000000000000000006020830152604082019050919050565b6000612a0f6019836136a0565b91507f4552433732313a20617070726f766520746f2063616c6c6572000000000000006000830152602082019050919050565b6000612a4f600b836136b1565b91507f5345434f4e445f574f52440000000000000000000000000000000000000000006000830152600b82019050919050565b6000612a8f602c836136a0565b91507f4552433732313a206f70657261746f7220717565727920666f72206e6f6e657860008301527f697374656e7420746f6b656e00000000000000000000000000000000000000006020830152604082019050919050565b6000612af5600d836136b1565b91507f3c2f746578743e3c2f7376673e000000000000000000000000000000000000006000830152600d82019050919050565b6000612b356038836136a0565b91507f4552433732313a20617070726f76652063616c6c6572206973206e6f74206f7760008301527f6e6572206e6f7220617070726f76656420666f7220616c6c00000000000000006020830152604082019050919050565b6000612b9b602a836136a0565b91507f4552433732313a2062616c616e636520717565727920666f7220746865207a6560008301527f726f2061646472657373000000000000000000000000000000000000000000006020830152604082019050919050565b6000612c016029836136a0565b91507f4552433732313a206f776e657220717565727920666f72206e6f6e657869737460008301527f656e7420746f6b656e00000000000000000000000000000000000000000000006020830152604082019050919050565b6000612c67602e836136a0565b91507f45524337323155524953746f726167653a2055524920736574206f66206e6f6e60008301527f6578697374656e7420746f6b656e0000000000000000000000000000000000006020830152604082019050919050565b6000612ccd6002836136b1565b91507f227d0000000000000000000000000000000000000000000000000000000000006000830152600282019050919050565b6000612d0d6020836136a0565b91507f4552433732313a206d696e7420746f20746865207a65726f20616464726573736000830152602082019050919050565b6000612d4d6031836136a0565b91507f45524337323155524953746f726167653a2055524920717565727920666f722060008301527f6e6f6e6578697374656e7420746f6b656e0000000000000000000000000000006020830152604082019050919050565b6000612db3602c836136a0565b91507f4552433732313a20617070726f76656420717565727920666f72206e6f6e657860008301527f697374656e7420746f6b656e00000000000000000000000000000000000000006020830152604082019050919050565b6000612e196029836136a0565b91507f4552433732313a207472616e73666572206f6620746f6b656e2074686174206960008301527f73206e6f74206f776e00000000000000000000000000000000000000000000006020830152604082019050919050565b6000612e7f602f836136a0565b91507f4552433732314d657461646174613a2055524920717565727920666f72206e6f60008301527f6e6578697374656e7420746f6b656e00000000000000000000000000000000006020830152604082019050919050565b6000612ee5600a836136b1565b91507f7b226e616d65223a2022000000000000000000000000000000000000000000006000830152600a82019050919050565b6000612f256021836136a0565b91507f4552433732313a20617070726f76616c20746f2063757272656e74206f776e6560008301527f72000000000000000000000000000000000000000000000000000000000000006020830152604082019050919050565b6000612f8b600a836136b1565b91507f46495253545f574f5244000000000000000000000000000000000000000000006000830152600a82019050919050565b6000612fcb601d836136b1565b91507f646174613a6170706c69636174696f6e2f6a736f6e3b6261736536342c0000006000830152601d82019050919050565b600061300b6031836136a0565b91507f4552433732313a207472616e736665722063616c6c6572206973206e6f74206f60008301527f776e6572206e6f7220617070726f7665640000000000000000000000000000006020830152604082019050919050565b60006130716043836136b1565b91507f222c20226465736372697074696f6e223a2022576f7264204172742e222c202260008301527f696d616765223a2022646174613a696d6167652f7376672b786d6c3b6261736560208301527f36342c00000000000000000000000000000000000000000000000000000000006040830152604382019050919050565b6130f98161383b565b82525050565b600061310b8284612806565b915081905092915050565b60006131228285612806565b915061312e8284612806565b91508190509392505050565b60006131468286612806565b91506131528285612806565b915061315e8284612806565b9150819050949350505050565b60006131778287612837565b91506131838286612806565b915061318f8285612806565b915061319b8284612806565b91506131a682612ae8565b915081905095945050505050565b60006131bf8261295c565b91506131cb8284612806565b915081905092915050565b60006131e182612a42565b91506131ed8284612806565b915081905092915050565b600061320382612ed8565b915061320f8285612806565b915061321a82613064565b91506132268284612806565b915061323182612cc0565b91508190509392505050565b600061324882612f7e565b91506132548284612806565b915081905092915050565b600061326a82612fbe565b91506132768284612806565b915081905092915050565b60006020820190506132966000830184612776565b92915050565b60006080820190506132b16000830187612776565b6132be6020830186612776565b6132cb60408301856130f0565b81810360608301526132dd8184612794565b905095945050505050565b60006040820190506132fd6000830185612776565b61330a60208301846130f0565b9392505050565b60006020820190506133266000830184612785565b92915050565b6000602082019050818103600083015261334681846127cd565b905092915050565b6000606082019050818103600083015261336881866127cd565b905061337760208301856130f0565b6133846040830184612776565b949350505050565b600060208201905081810360008301526133a5816128b6565b9050919050565b600060208201905081810360008301526133c58161291c565b9050919050565b600060208201905081810360008301526133e58161299c565b9050919050565b6000602082019050818103600083015261340581612a02565b9050919050565b6000602082019050818103600083015261342581612a82565b9050919050565b6000602082019050818103600083015261344581612b28565b9050919050565b6000602082019050818103600083015261346581612b8e565b9050919050565b6000602082019050818103600083015261348581612bf4565b9050919050565b600060208201905081810360008301526134a581612c5a565b9050919050565b600060208201905081810360008301526134c581612d00565b9050919050565b600060208201905081810360008301526134e581612d40565b9050919050565b6000602082019050818103600083015261350581612da6565b9050919050565b6000602082019050818103600083015261352581612e0c565b9050919050565b6000602082019050818103600083015261354581612e72565b9050919050565b6000602082019050818103600083015261356581612f18565b9050919050565b6000602082019050818103600083015261358581612ffe565b9050919050565b60006020820190506135a160008301846130f0565b92915050565b6000604051905081810181811067ffffffffffffffff821117156135ce576135cd6139c0565b5b8060405250919050565b600067ffffffffffffffff8211156135f3576135f26139c0565b5b602082029050602081019050919050565b600067ffffffffffffffff82111561361f5761361e6139c0565b5b601f19601f8301169050602081019050919050565b600067ffffffffffffffff82111561364f5761364e6139c0565b5b601f19601f8301169050602081019050919050565b60008190508160005260206000209050919050565b600081519050919050565b600081519050919050565b600082825260208201905092915050565b600082825260208201905092915050565b600081905092915050565b60006136c78261383b565b91506136d28361383b565b9250827fffffffffffffffffffffffffffffffffffffffffffffffffffffffffffffffff0382111561370757613706613933565b5b828201905092915050565b600061371d8261383b565b91506137288361383b565b92508261373857613737613962565b5b828204905092915050565b600061374e8261383b565b91506137598361383b565b9250817fffffffffffffffffffffffffffffffffffffffffffffffffffffffffffffffff048311821515161561379257613791613933565b5b828202905092915050565b60006137a88261383b565b91506137b38361383b565b9250828210156137c6576137c5613933565b5b828203905092915050565b60006137dc8261381b565b9050919050565b60008115159050919050565b60007fffffffff0000000000000000000000000000000000000000000000000000000082169050919050565b600073ffffffffffffffffffffffffffffffffffffffff82169050919050565b6000819050919050565b82818337600083830152505050565b60005b83811015613872578082015181840152602081019050613857565b83811115613881576000848401525b50505050565b6000600282049050600182168061389f57607f821691505b602082108114156138b3576138b2613991565b5b50919050565b60006138c48261383b565b91507fffffffffffffffffffffffffffffffffffffffffffffffffffffffffffffffff8214156138f7576138f6613933565b5b600182019050919050565b600061390d8261383b565b91506139188361383b565b92508261392857613927613962565b5b828206905092915050565b7f4e487b7100000000000000000000000000000000000000000000000000000000600052601160045260246000fd5b7f4e487b7100000000000000000000000000000000000000000000000000000000600052601260045260246000fd5b7f4e487b7100000000000000000000000000000000000000000000000000000000600052602260045260246000fd5b7f4e487b7100000000000000000000000000000000000000000000000000000000600052604160045260246000fd5b6000601f19601f8301169050919050565b613a09816137d1565b8114613a1457600080fd5b50565b613a20816137e3565b8114613a2b57600080fd5b50565b613a37816137ef565b8114613a4257600080fd5b50565b613a4e8161383b565b8114613a5957600080fd5b5056fe416e204e465420772f20494420257320686173206265656e206d696e74656420746f2025734142434445464748494a4b4c4d4e4f505152535455565758595a6162636465666768696a6b6c6d6e6f707172737475767778797a303132333435363738392b2fa2646970667358221220d370f7129ffeda7e19d8fe0dfb200afe274d7baaa97e73d8f045c6ebe576bbdf64736f6c634300080000333c73766720786d6c6e733d27687474703a2f2f7777772e77332e6f72672f323030302f73766727207072657365727665417370656374526174696f3d27784d696e594d696e206d656574272076696577426f783d273020302033353020333530273e3c7374796c653e2e62617365207b2066696c6c3a2077686974653b20666f6e742d66616d696c793a2073657269663b20666f6e742d73697a653a20323470783b207d3c2f7374796c653e3c726563742077696474683d273130302527206865696768743d2731303025272066696c6c3d27626c61636b27202f3e3c7465787420783d273530252720793d273530252720636c6173733d27626173652720646f6d696e616e742d626173656c696e653d276d6964646c652720746578742d616e63686f723d276d6964646c65273e",
  "linkReferences": {},
  "deployedLinkReferences": {}
}